{
  "contractName": "Oraclizer",
  "abi": [
    {
      "constant": true,
      "inputs": [],
      "name": "GBP",
      "outputs": [
        {
          "name": "",
          "type": "string"
        }
      ],
      "payable": false,
      "stateMutability": "view",
      "type": "function"
    },
    {
      "inputs": [],
      "payable": false,
      "stateMutability": "nonpayable",
      "type": "constructor"
    },
    {
      "constant": false,
      "inputs": [],
      "name": "updateGBP",
      "outputs": [],
      "payable": true,
      "stateMutability": "payable",
      "type": "function"
    },
    {
      "constant": false,
      "inputs": [
        {
          "name": "myid",
          "type": "bytes32"
        },
        {
          "name": "result",
          "type": "string"
        }
      ],
      "name": "__callback",
      "outputs": [],
      "payable": false,
      "stateMutability": "nonpayable",
      "type": "function"
    },
    {
      "constant": false,
      "inputs": [
        {
          "name": "myid",
          "type": "bytes32"
        },
        {
          "name": "result",
          "type": "string"
        },
        {
          "name": "proof",
          "type": "bytes"
        }
      ],
      "name": "__callback",
      "outputs": [],
      "payable": false,
      "stateMutability": "nonpayable",
      "type": "function"
    }
  ],
  "bytecode": "0x6060604052341561000f57600080fd5b736f485c8bf6fc43ea212e93bbf8ce046c7f1cb475600560006101000a81548173ffffffffffffffffffffffffffffffffffffffff021916908373ffffffffffffffffffffffffffffffffffffffff160217905550610e16806100736000396000f300606060405260043610610062576000357c0100000000000000000000000000000000000000000000000000000000900463ffffffff16806301b8b3391461006757806327dc297e146100f557806338bbfa501461015f57806343f01bd31461020c575b600080fd5b341561007257600080fd5b61007a610216565b6040518080602001828103825283818151815260200191508051906020019080838360005b838110156100ba57808201518184015260208101905061009f565b50505050905090810190601f1680156100e75780820380516001836020036101000a031916815260200191505b509250505060405180910390f35b341561010057600080fd5b61015d60048080356000191690602001909190803590602001908201803590602001908080601f016020809104026020016040519081016040528093929190818152602001838380828437820191505050505050919050506102b4565b005b341561016a57600080fd5b61020a60048080356000191690602001909190803590602001908201803590602001908080601f0160208091040260200160405190810160405280939291908181526020018383808284378201915050505050509190803590602001908201803590602001908080601f016020809104026020016040519081016040528093929190818152602001838380828437820191505050505050919050506102cf565b005b6102146102d4565b005b60068054600181600116156101000203166002900480601f0160208091040260200160405190810160405280929190818152602001828054600181600116156101000203166002900480156102ac5780601f10610281576101008083540402835291602001916102ac565b820191906000526020600020905b81548152906001019060200180831161028f57829003601f168201915b505050505081565b80600690805190602001906102ca929190610d45565b505050565b505050565b61036f6040805190810160405280600381526020017f55524c0000000000000000000000000000000000000000000000000000000000815250606060405190810160405280603a81526020017f6a736f6e28687474703a2f2f6170692e66697865722e696f2f6c61746573743f81526020017f73796d626f6c733d5553442c474250292e72617465732e474250000000000000815250610372565b50565b60008060008060009054906101000a900473ffffffffffffffffffffffffffffffffffffffff1673ffffffffffffffffffffffffffffffffffffffff1614806103e4575060006103e26000809054906101000a900473ffffffffffffffffffffffffffffffffffffffff16610880565b145b156103f5576103f3600061088b565b505b6000809054906101000a900473ffffffffffffffffffffffffffffffffffffffff1673ffffffffffffffffffffffffffffffffffffffff166338cc48316040518163ffffffff167c0100000000000000000000000000000000000000000000000000000000028152600401602060405180830381600087803b151561047957600080fd5b5af1151561048657600080fd5b5050506040518051905073ffffffffffffffffffffffffffffffffffffffff16600160009054906101000a900473ffffffffffffffffffffffffffffffffffffffff1673ffffffffffffffffffffffffffffffffffffffff161415156105c2576000809054906101000a900473ffffffffffffffffffffffffffffffffffffffff1673ffffffffffffffffffffffffffffffffffffffff166338cc48316040518163ffffffff167c0100000000000000000000000000000000000000000000000000000000028152600401602060405180830381600087803b151561056a57600080fd5b5af1151561057757600080fd5b50505060405180519050600160006101000a81548173ffffffffffffffffffffffffffffffffffffffff021916908373ffffffffffffffffffffffffffffffffffffffff1602179055505b600160009054906101000a900473ffffffffffffffffffffffffffffffffffffffff1673ffffffffffffffffffffffffffffffffffffffff1663524f3889856040518263ffffffff167c01000000000000000000000000000000000000000000000000000000000281526004018080602001828103825283818151815260200191508051906020019080838360005b8381101561066c578082015181840152602081019050610651565b50505050905090810190601f1680156106995780820380516001836020036101000a031916815260200191505b5092505050602060405180830381600087803b15156106b757600080fd5b5af115156106c457600080fd5b50505060405180519050905062030d403a02670de0b6b3a7640000018111156106f35760006001029150610879565b600160009054906101000a900473ffffffffffffffffffffffffffffffffffffffff1673ffffffffffffffffffffffffffffffffffffffff1663adf59f9982600087876040518563ffffffff167c0100000000000000000000000000000000000000000000000000000000028152600401808481526020018060200180602001838103835285818151815260200191508051906020019080838360005b838110156107ab578082015181840152602081019050610790565b50505050905090810190601f1680156107d85780820380516001836020036101000a031916815260200191505b50838103825284818151815260200191508051906020019080838360005b838110156108115780820151818401526020810190506107f6565b50505050905090810190601f16801561083e5780820380516001836020036101000a031916815260200191505b50955050505050506020604051808303818588803b151561085e57600080fd5b5af1151561086b57600080fd5b505050506040518051905091505b5092915050565b6000813b9050919050565b600061089561089c565b9050919050565b6000806108bc731d3b2638a7cc9f2cb3d298a3da7a90b67e5506ed610880565b111561095d57731d3b2638a7cc9f2cb3d298a3da7a90b67e5506ed6000806101000a81548173ffffffffffffffffffffffffffffffffffffffff021916908373ffffffffffffffffffffffffffffffffffffffff1602179055506109546040805190810160405280600b81526020017f6574685f6d61696e6e6574000000000000000000000000000000000000000000815250610d2b565b60019050610d28565b600061097c73c03a2615d5efaf5f49f60b7bb6583eaec212fdf1610880565b1115610a1d5773c03a2615d5efaf5f49f60b7bb6583eaec212fdf16000806101000a81548173ffffffffffffffffffffffffffffffffffffffff021916908373ffffffffffffffffffffffffffffffffffffffff160217905550610a146040805190810160405280600c81526020017f6574685f726f707374656e330000000000000000000000000000000000000000815250610d2b565b60019050610d28565b6000610a3c73b7a07bcf2ba2f2703b24c0691b5278999c59ac7e610880565b1115610add5773b7a07bcf2ba2f2703b24c0691b5278999c59ac7e6000806101000a81548173ffffffffffffffffffffffffffffffffffffffff021916908373ffffffffffffffffffffffffffffffffffffffff160217905550610ad46040805190810160405280600981526020017f6574685f6b6f76616e0000000000000000000000000000000000000000000000815250610d2b565b60019050610d28565b6000610afc73146500cfd35b22e4a392fe0adc06de1a1368ed48610880565b1115610b9d5773146500cfd35b22e4a392fe0adc06de1a1368ed486000806101000a81548173ffffffffffffffffffffffffffffffffffffffff021916908373ffffffffffffffffffffffffffffffffffffffff160217905550610b946040805190810160405280600b81526020017f6574685f72696e6b656279000000000000000000000000000000000000000000815250610d2b565b60019050610d28565b6000610bbc736f485c8bf6fc43ea212e93bbf8ce046c7f1cb475610880565b1115610c1f57736f485c8bf6fc43ea212e93bbf8ce046c7f1cb4756000806101000a81548173ffffffffffffffffffffffffffffffffffffffff021916908373ffffffffffffffffffffffffffffffffffffffff16021790555060019050610d28565b6000610c3e7320e12a1f859b3feae5fb2a0a32c18f5a65555bbf610880565b1115610ca1577320e12a1f859b3feae5fb2a0a32c18f5a65555bbf6000806101000a81548173ffffffffffffffffffffffffffffffffffffffff021916908373ffffffffffffffffffffffffffffffffffffffff16021790555060019050610d28565b6000610cc07351efaf4c8b3c9afbd5ab9f4bbc82784ab6ef8faa610880565b1115610d23577351efaf4c8b3c9afbd5ab9f4bbc82784ab6ef8faa6000806101000a81548173ffffffffffffffffffffffffffffffffffffffff021916908373ffffffffffffffffffffffffffffffffffffffff16021790555060019050610d28565b600090505b90565b8060029080519060200190610d41929190610d45565b5050565b828054600181600116156101000203166002900490600052602060002090601f016020900481019282601f10610d8657805160ff1916838001178555610db4565b82800160010185558215610db4579182015b82811115610db3578251825591602001919060010190610d98565b5b509050610dc19190610dc5565b5090565b610de791905b80821115610de3576000816000905550600101610dcb565b5090565b905600a165627a7a72305820e65631045f5c1beb8c0820a98e859ec499ef78b29152a944d4aa352c2dd77f9a0029",
  "source": "pragma solidity ^0.4.21;\n\nimport \"../ethereum-api/oraclizeAPI_0.5.sol\";\n\n\ncontract Oraclizer is usingOraclize {\n    OraclizeAddrResolverI private OAR;\n    string public GBP;\n\n    function Oraclizer() public {\n        OAR = OraclizeAddrResolverI(0x6f485C8BF6fc43eA212E93BBF8ce046C7f1cb475);\n    }\n\n    function updateGBP() public payable {\n        oraclize_query(\"URL\", \"json(http://api.fixer.io/latest?symbols=USD,GBP).rates.GBP\");\n    }\n\n    function __callback(bytes32 myid, string result) public {\n        GBP = result;\n    }\n}\n",
  "sourcePath": "/Users/dmitrisavitski/EthereumProjects/Practice/oraclize-practice/contracts/Oraclizer.sol",
  "compiler": {
    "name": "solc",
    "version": "0.4.21+commit.dfe3193c.Emscripten.clang"
  },
  "schemaVersion": "2.0.0",
  "updatedAt": "2018-04-14T09:23:38.451Z"
}